:020000040800F2
:1000000000000524BD0C0008A50B0008A70B000884
:10001000A90B0008AB0B0008AD0B000800000000A6
:10002000000000000000000000000000AF0B00080E
:10003000B10B000800000000B30B0008B50B00086E
:100040000D0D00080D0D00080D0D00080D0D000828
:100050000D0D00080D0D00080D0D00080D0D000818
:100060000D0D00080D0D00080D0D0008F50B000822
:10007000010C00080D0D00080D0D00080D0D000805
:100080000D0D00080D0D00080D0D00080D0D0008E8
:100090000D0D00080D0D00080D0D00080D0D0008D8
:1000A0000D0D00080D0D00080D0D00080D0D0008C8
:1000B0000D0D00080D0C00080D0D00080D0D0008B9
:1000C0000D0D00080D0D00080D0D00080D0D0008A8
:1000D0000D0D00080D0D00080D0D00080D0D000898
:1000E0000D0D00080D0D0008000000000D0D0008AA
:1000F0000D0D00080D0D00080D0D00080D0D000878
:100100000D0D00080D0D00080D0D00080D0D000867
:100110000D0D00080D0D00080D0D00080D0D000857
:100120000D0D00080D0D00080D0D00080D0D000847
:100130000D0D00080D0D00080D0D00080D0D000837
:1001400000000000000000000000000000000000AF
:100150000D0D00080D0D00080D0D00080D0D000817
:100160000D0D00080D0D00080D0D00080D0D000807
:100170000D0D00080D0D00080D0D00080000000019
:100180000D0D00080D0D00080D0D00080D0D0008E7
:100190000D0D00080D0D00080D0D00080D0D0008D7
:1001A0000D0D00080D0D00080D0D000800000000E9
:1001B0000D0D00080D0D00080D0D00080D0D0008B7
:1001C0000D0D00080D0D00080000000000000000EB
:1001D00000000000000000000D0D000800000000FD
:1001E000000000000000000000000000000000000F
:1001F00000000000000000000D0D00080D0D0008BB
:100200000D0D00080D0D0008000000000D0D000888
:100210000D0D00080D0D00080D0D00080D0D000856
:100220000D0D0008000000000D0D0008000000008A
:100230000D0D00080D0D0008000000000D0D000858
:100240000D0D00080D0D00080D0D00080D0D000826
:100250000D0D00080D0D00080D0D00080D0D000816
:100260000D0D00080D0D00080D0D00080D0D000806
:100270000D0D00080D0D00080D0D00080000000018
:100280000D0D00080D0D00080D0D00080D0D0008E6
:10029000000000000D0D00080D0D0008000000001A
:1002A000000000000D0D00080D0D00080D0D0008E8
:1002B0000D0D00080D0D00080D0D00080D0D0008B6
:0C02C0000D0D00080D0D00080D0D0008CC
:1002D00010B5054C237833B9044B13B10448AFF380
:1002E00000800123237010BD600000240000000086
:1002F0005051000808B5034B1BB103490348AFF345
:10030000008008BD00000000640000245051000877
:1003100010B5002204464FF44041274802F0CCFCBF
:1003200000224FF47C51254802F0C6FC0C2C41D829
:10033000DFE804F028231F1B17130F072C2C2C2C8D
:100340002C0001224FF480511C48BDE8104002F0FF
:10035000B3BC01224FF40051F6E701224FF4806153
:10036000F2E701224FF40061EEE701224FF48071C1
:10037000EAE701224FF40071E6E701224FF48041E1
:100380000D48E2E701224FF40041F9E7093C012260
:100390004FF48051094802F08FFC032CF2D801A3DE
:1003A00053F824F07B030008730300086B03000874
:1003B0006303000810BD00BF00040258000C02587F
:1003C0000368094A5B6A13601BB2084A23EAE373B5
:1003D0001380002B064AB8BF0333C3F38F030C2BE3
:1003E00028BF0C231380704784000024820000245F
:1003F0008000002410B59CB04C22002109A804F014
:1004000074FE2022002101A804F06FFE022002F0F9
:1004100059FC002300931F4B9A6922F440429A61D1
:100420009A6902F440420092009A9A699204FCD5BB
:100430000223002204200121099340241293CDE9D4
:1004400017330C23CDE913202220CDE919324FF4C4
:100450004063CDE9150109A81B93CDE90C1402F006
:1004600055FC08B172B6FEE73F230321039001A8B3
:100470000694CDE901310823CDE904344FF48063BB
:10048000CDE9073402F05EFF08B172B6FEE71CB09A
:1004900010BD00BF004802589F4C00254FF00108D6
:1004A00004264FF0030980B59AB000F057FC9B4832
:1004B00010950CA9CDE90E55D4F8E03043F00203B5
:1004C000C4F8E030D4F8E03003F002030393039B58
:1004D000D4F8E03043F00803C4F8E030D4F8E0305A
:1004E00003F008030493049BD4F8E03043F00103C5
:1004F000C4F8E030D4F8E03003F001030593059B25
:100500004FF44043CDE90C3802F0F4FA4FF47C5339
:100510000CA983480C9302F0EDFAFFF76BFF814BB7
:10052000814A29461D6000230B2013607F4A136017
:100530004FF07E527E4B1A602A46D4F8E03043F0EA
:100540000403C4F8E030D4F8E03003F00403079368
:10055000079BD4F8E03043EA0803C4F8E030D4F84D
:10056000E03003EA08030893089BD4F8D83043EA44
:100570000803C4F8D830D4F8D8306E4C03EA080326
:100580000693069B01F0FCF90B2001F02BFA2A469A
:1005900029460C2001F0F4F90C2001F023FA294639
:1005A000242211A804F0A1FD4FF4403362494FF416
:1005B000B460256166612583C4F81C8084F82050EE
:1005C00084F838806563C4F8309084F84450A5649A
:1005D000C4E900130823C4E902354FF48063C4E979
:1005E0000A032046C4E90F5501F072F808B172B64B
:1005F000FEE7524A062311A9139016901890204640
:10060000CDE9112340F2FF73CDE9143600F072FCFE
:10061000014608B172B6FEE7DFF848A1242211A80E
:1006200004F063FD464B5046CAF8003001F0FCF977
:1006300008B172B6FEE716231190102211A9CDE978
:100640001230CDE91480504601F084FA08B172B638
:10065000FEE73C4F3C4B1390B860B861C7E90030EF
:1006600040F63133CDE911003846FB6004F0A0FAC2
:1006700008B172B6FEE72023139011A938461193F2
:1006800004F01AFB054608B172B6FEE701461822CF
:1006900014A82E4E04F029FD2D4B11A930460B95C0
:1006A000B560B561CDF84490C6E900354FF6FF73EB
:1006B000C6E903350223CDE90955CDE91238CDE964
:1006C000163804F0A5FA08B172B6FEE7099009A938
:1006D0000B90304604F0F0FA054608B172B6FEE71A
:1006E00040F6AC521B4920461B4C00F0D9FE40F6A8
:1006F000AC531A4A10210095504601F0A9F9184D43
:10070000384604F08DF83C21304604F0CBF82888B8
:100710002060FFF7FDFDFAE700440258000402588C
:10072000000C02580470002400700024FC6F0024A8
:10073000F86F0024846F0024006002580008302EF7
:1007400000740040E86D002400100040346E002466
:100750000004004038370024F46F0024880000248F
:1007600080000024F86E00244A4BF2EE080AB0EE36
:10077000000A1A680C2A88BF0C2270B588BF1A605C
:10078000D3ED007A444DF8EE677A444E2C68F1EED2
:10079000677A46F82400C7EEA00A04F0F9FA404B45
:1007A00040F6AC51D3ED007A30EE270ADFED3D7A0A
:1007B000B4EEE70AF1EE10FAA8BF30EE670AFDEEDC
:1007C000C07A83ED000A17EE903A93FBF1F201FB39
:1007D000123303F2D66292FBF1F001FB102256F8BD
:1007E0002310E01A07EE901A06EB8201B0F5AF7FF6
:1007F00091ED006AF8EEE76A2B49F7EE007AB8EE61
:10080000C66A3DD8294E96ED007AB4EE677AF1EECD
:1008100010FA35D007EE100A9FED255AB8EEC77AC8
:10082000C7EE055AC1ED005AA31AB3F5AF7F2CD815
:100830001E4890ED007AB4EE677AF1EE10FA24D0FB
:1008400007EE103A9FED1A5AB8EEC77AC7EE055A6E
:1008500037EEE57A81ED007A91ED007A40F6AC53FF
:10086000013477EEC77A9C4208BF002467EE867A8F
:100870002C60E7EE267AFCEEE77A17EE900A70BD60
:100880009C4204BF00230B60CEE7944208BFC1ED39
:10089000007AE1E7F46F002404700024087000245B
:1008A0000070002400C05A45F86F0024FC6F00243B
:1008B0000000AF43F8B5074E0024074D40F2D6675D
:1008C000013456F8040BFFF74FFF45F8040BBC4208
:1008D000F6D1F8BD3837002488000024F8B540F27E
:1008E000D664074F074E40F6AC5557F82400FFF783
:1008F0003BFF46F824000134AC42F6D1F8BD00BFFE
:10090000383700248800002472B6FEE7124B07B582
:10091000D3F8F420002042F00202C3F8F420D3F808
:10092000F42002F002020092009AD3F8F42042F47C
:100930000042C3F8F420D3F8F43003F400430193E9
:10094000019B00F04BFA00F05DFA002003B05DF867
:1009500004EB00F04DBA00BF0044025870B5B6B0C9
:1009600005461422002103A804F0BFFBB822002191
:1009700008A804F0BAFB2A682D4B9A4256D14FF4CE
:100980000022002308A8CDE9082304230C220C939D
:10099000CDE90A320223CDE90D33C0230F9302F0D3
:1009A0001BFF08B1FFF7B0FF224B002603A9224826
:1009B000D3F8E020214C42F08072C3F8E020D3F855
:1009C000E02002F080720192019AD3F8E02042F018
:1009D0000402C3F8E0200222D3F8E030059603F0C9
:1009E00004030293029B0323CDE9032302F082F860
:1009F000732313494FF480604FF4804CC4E9001313
:100A00004FF48053C4E904034FF480732046C4E9D3
:100A100006C34FF44033C4E90266C4E9083601F066
:100A2000EDFA08B1FFF770FFAC65A56336B070BD95
:100A30000060025800440258000802580C6F00245D
:100A40001000024030B589B005461422002103A8E9
:100A500004F04BFB2A68234B9A4241D1224B03A955
:100A60002248D3F8E820224C42F00052C3F8E82094
:100A7000D3F8E82002F000520192019AD3F8E02066
:100A800042F00102C3F8E0202022D3F8E03003F066
:100A900001030293029B0323CDE9032302F02AF80A
:100AA0004FF480524FF4806C442312494FF4804E2F
:100AB0004020C4E904C24FF48072C4E9001300234B
:100AC000C4E906E24FF44032C4E902032046C4E917
:100AD000082301F093FA08B1FFF716FFEC60A56355
:100AE00009B030BD007400400044025800000258B4
:100AF000806E00242800024010B588B004461422FD
:100B0000002103A804F0F1FA2268174B9A4229D178
:100B1000164B03A91648D3F8E82042F00202C3F8A6
:100B2000E820D3F8E82002F002020192019AD3F8FB
:100B3000E02042F00102C3F8E020C022D3F8E03008
:100B400003F001030293029B0223CDE903230793E1
:100B500001F0D0FF00221D20114600F011FF1D20E2
:100B600000F040FF08B010BD0004004000440258EF
:100B700000000258026882B0084B9A420CD1084B20
:100B8000D3F8E82042F01002C3F8E820D3F8E830A8
:100B900003F010030193019B02B070470010004066
:100BA00000440258FEE7FEE7FEE7FEE7FEE7704777
:100BB000704770470B4A13680133B3F57A7F10B45E
:100BC00013600AD1084B094918880B88084CC31ACE
:100BD00008805B002360002313605DF8044B00F085
:100BE000EBB800BFB8A6002480000024BCA60024F7
:100BF0007C000024014801F0D9BC00BF0C6F002428
:100C0000014801F0D3BC00BF806E0024014803F00E
:100C1000BABE00BF346E0024204AD2F8883043F4B4
:100C20007003C2F888301E4A136803F00F03062BC6
:100C300005D8136823F00F0343F007031360194B23
:100C40001A6842F001021A6000221A61164A1968F5
:100C50000A4013491A600A68120705D50A6822F08B
:100C60000F0242F007020A60002210499A61DA611D
:100C70001A6299620E49D9620E4919635A639963DF
:100C8000DA6319645A64196821F4802119601A66BC
:100C900043F2D202084B1A60704700BF00ED00E03B
:100CA00000200052004402587FEDF6EA00020202E2
:100CB0000000FF018002010100400052DFF834D043
:100CC000FFF7AAFF0C480D490D4A002302E0D45853
:100CD000C4500433C4188C42F9D30A4A0A4C002386
:100CE00001E013600432A242FBD304F00DFAFFF7D7
:100CF000D3FB70470000052400000024600000249E
:100D00001054000860000024FCA70024FEE7000047
:100D100038B50F4B05461A780AB9012038BD4FF493
:100D20007A73B3FBF2F30B4A1068B0FBF3F000F0F8
:100D300067FE04460028F0D10F2DEED80246294662
:100D40004FF0FF3000F01CFE034B20461D60E5E72E
:100D500008000024040000240C00002410B5032027
:100D600000F0FCFD02F04CFA0F49104A8B69C3F306
:100D70000323D35C03F01F03D8408B6903F00F03F8
:100D8000D35C0B4A03F01F0320FA03F31360094BF3
:100D900018600F20FFF7BCFF044618B9FFF7B6FD37
:100DA000204610BD0124FBE70044025868510008AA
:100DB0000000002404000024034A044B11681B783F
:100DC0000B441360704700BFC0A600240800002435
:100DD000014B1868704700BFC0A60024034A13687F
:100DE00023F0700303431360704700BF003C0058BA
:100DF000034A136823F0020303431360704700BFE4
:100E0000003C005838B50A4C236843F001032360C6
:100E1000FFF7DEFF054623681B0701D5002038BD1C
:100E2000FFF7D6FF401B0A28F5D90320F7E700BFDC
:100E3000003C005830B5CC0D1430C1F304510725E7
:100E400004F004048D408A40035923EA0503134348
:100E5000035130BD806800F0010070478068C0F326
:100E600080007047806B08B5FFF724FD08BD704710
:100E7000836B1A6E12F0500F1A6E10B521D142F426
:100E800000721A661A681168080716D5D16811F43D
:100E9000406F0ED1D26812F4005F0AD11A6E22F4AC
:100EA00080721A661A6ED10403D41A6E42F00102DF
:100EB0001A661846FFF712FD10BDD26812F0030F34
:100EC000EBE7D20603D51846FFF7D1FFF4E79B6D99
:100ED000BDE81040DB6C1847806B08B5036E43F02B
:100EE00040030366436E43F004034366FFF7BFFF0E
:100EF00008BD00000023F7B50193054690F85C306B
:100F00000E46012B00F057820122046880F85C2015
:100F10002046FFF7A3FF002840F09F810B68002BBD
:100F20004FEA93610ADB9F48844207D0C3F3130062
:100F3000002867D18A40E3691343E361706804F1D4
:100F4000300C1F22870900F01F0007F00C078240B9
:100F50005CF8073023EA020201F01F0383402046B9
:100F600013434CF80730FFF779FFA36803F0080339
:100F700003433BD1B26820463168FFF75BFF894BE2
:100F800072699C4247D1E368C3F3C1035B003069D7
:100F90009A40844F0428336877D004F16001BC4242
:100FA00003F0F84C51F8203048D142EA0C0242F0EC
:100FB000004241F820207C493269F06951F8223022
:100FC00023F08073034341F8223096F820203069E3
:100FD00002F1FF3E51F82030DEF1000223F00073F1
:100FE00042EB0E0243EA426341F820302046FFF70D
:100FF00031FF002800F0DC800020002385F85C3001
:1010000003B0F0BD93FAA3F3B3FA83F3012203F024
:101010001F039A408FE7654B1B6803F07043B3F1E1
:10102000805FE36802D1C3F38203AFE713F0100FD0
:10103000E368F8D05B0803F00803A8E703F0004377
:1010400043EA0C03134341F8203096F8212030691D
:10105000571E51F820307A4223F000437A4143EA88
:10106000C27341F82030337E316903F1FF3C2269BD
:1010700001F01F01DCF1000322F4F04243EB0C030A
:10108000DB028B4013432361B0E7BC4262D1226E86
:10109000C3F31301226EC2F3846200293DD1C3F36E
:1010A00084639A4203D1236E23F000432366636E68
:1010B0003368616EC3F313003A4AC1F384610028B8
:1010C00032D1C3F38463994203D1536E23F00043BA
:1010D0005366936E3368916EC3F31300314AC1F3C4
:1010E000846140BBC3F38463994203D1936E23F0C0
:1010F00000439366D36E3368D26EC3F31301C2F319
:101100008462F9B9C3F384639A427FF46FAF254ACE
:10111000D36E23F00043D36668E793FAA3F3002B62
:10112000C5D0B3FA83F3BCE793FAA3F3002BD0D076
:10113000B3FA83F3C7E793FAA3F3002BDAD0B3FA39
:1011400083F3D1E793FAA3F3002B3FF44FAFB3FA45
:1011500083F3D9E7216E9A0601F0F841B1EB836F72
:1011600003D1236E23F000432366636E03F0F8433C
:101170009A4203D1636E23F000436366A36E03F0CB
:10118000F8439A4203D1A36E23F00043A366E36EB3
:1011900003F0F8439A427FF429AFE36E23F0004353
:1011A000E36623E700600258606002580010005CAC
:1011B000F768824A07F018013368CA408049C3F3D0
:1011C00013008C4202EA03026FEA000C4BD1D4F800
:1011D000B01001EA0C010A43C4F8B020794A9742E2
:1011E0001BD1002847D19A0E0121013202F01F07BE
:1011F0009206092F5FD802F0F842B9401143002847
:1012000054D19B0E013303F01F0303EB43031B0573
:101210001943B2682046FFF70DFE31680029BFF67A
:10122000EBAE694A944274D0684E694B6948B44247
:1012300008BF034694429E6802D0644B9C426AD128
:101240006148FFF707FE03466048FFF703FE0343CC
:101250000CBF01200020002864D12B6E012043F038
:1012600020032B66C9E6D4F8C01001EA0C010A433A
:10127000C4F8C020B2E793FAA3F232B1B2FA82F214
:10128000013202F01F02092A25D893FAA3F2B2FA1A
:1012900082F20132920602F0F84293FAA3F7B7FA0B
:1012A00087F70121013707F01F07A6E793FAA3F399
:1012B000B3FA83F3A6E702F0F842B9401143D8B974
:1012C0009B0E013303F01F0303EB43031E3B1B057F
:1012D00043F000739CE793FAA3F2B2FA82F2013270
:1012E000920602F0F84293FAA3F7B7FA87F70121C2
:1012F000013707F01F07E0E793FAA3F2B2FA82F290
:1013000003236FF01D00013202F01F0213FB0203E2
:10131000DDE7304B8EE72A48FFF79CFDB0FA80F0FE
:10132000400998E72C4B06F0E07099421DD131023C
:101330003FF562AE224B9C427FF45EAE244A936836
:1013400023F0E073034343F400039360234B244AE8
:101350001B68B3FBF2F301335B000193019B002B8D
:101360003FF44AAE019B013BF7E71E4B99420FD178
:10137000F2013FF541AE124B9C427FF43DAE144A60
:10138000936823F0E073034343F08073936033E684
:10139000154B99427FF430AE73023FF52DAE084BEA
:1013A0009C427FF429AE0A4A936823F0E07303431A
:1013B00043F48003EAE7022022E600BFFFFF0F00AC
:1013C000006002580000FF47002002400021024058
:1013D0000063025800230240000052C704000024AA
:1013E000400D0300000021C3000084CB026870B5EB
:1013F00004461046FFF72EFD08B1002070BD91682D
:10140000224B194209D0236E012043F010032366BA
:10141000636E43F001036366F0E7936823F00043D3
:1014200023F03F0343F001039360FFF7D1FC2268F0
:10143000174B054617499A420ED003F1C053164880
:1014400003F586438A4208BF03468A429B6801D15E
:10145000D906D2D1114E13E00F4BF6E71046FFF735
:10146000F9FC20B99368334043F001039360FFF720
:10147000AFFC401B022803D923681B68DA07C2D5DA
:1014800022681368DB07E9D5B7E700BF3F0000809B
:10149000002002400021024000230240C0FFFF7FE5
:1014A0002DE9F041414B044600680E46174698422C
:1014B0006CD003F1C0533E493E4A03F5864388424F
:1014C00008BF13469B68FFF7C9FC054600286AD190
:1014D00094F85C20012A66D003F01F0840F2212313
:1014E000012023FA08F384F85C00034058D020461A
:1014F000FFF77CFF002850D1206E216820F4706037
:101500002B4B20F00100994240F48070206602D1FC
:10151000B8F1000F03D1236E23F480132366236EEA
:1015200013F4805302D0636E23F006036366A06D4C
:10153000214BC363214B0364214BC3641C230B6009
:10154000002384F85C304B6843F010034B601D4B64
:101550009942CB681CD194F8382023F0030343EA66
:101560004203CB60CB6843F00103CB6032463B467D
:10157000403100F001FF2268936823F0004323F01C
:101580003F0343F004039360BDE8F081094B99E702
:1015900023F00303226B1343E7E784F85C50F3E77F
:1015A00084F85C30F0E70220EEE700BF0020024044
:1015B0000021024000230240710E0008650E000861
:1015C000D90E00080060025838B53B4A044603684B
:1015D0003A4D934203D002F58072934214D1384BB6
:1015E0009B6813F4403F23D001F0D2FF6368B3F54A
:1015F000003F05D0B3F5403F08D0B3F5803F06D19A
:101600001B0CB0FBF3F002E02E4BE9E78008A84288
:1016100022684CD92C4B98423BD92C4B984293686A
:1016200096BF23F4407343F4407343F4007336E0F1
:101630004FF40020002102F08DFF6368B3F5101F06
:1016400031D01DD8B3F5E01F2BD014D8B3F5801FCF
:1016500008D00AD8B3F5002F04D023F40022B2F545
:10166000802FD4D19B0C5B00CBE7B3F5A01FF9D042
:10167000B3F5C01FF5E7B3F5001FC8D14009C6E7B1
:10168000B3F5201F11D0B3F5301FC0D1B5EB102F2B
:101690000DD22268936823F4407343F480739360FF
:1016A00038BD0009B3E78009B1E7C009AFE7226898
:1016B000936823F44073F2E70020024021BCBE008F
:1016C000002302400063025841787D0181F0FA0254
:1016D0000023F7B504460193002800F02481056E2D
:1016E00025B9FFF73BF9656684F85C5023689A6872
:1016F000900005D59A6822F0204222F03F029A60BD
:101700009A68D10040F1BE809A68D20000F1D08082
:10171000226E012542F010022266626E42F0010242
:1017200062661846FFF79AFB266E06F0100606431F
:1017300040F0F580226E184622F4817242F00202D7
:101740002266FFF787FB80B9784F7949BB4202D008
:101750008B4240F0AF807548FFF77CFB024674482F
:10176000FFF778FB024300F0B380724894F819E069
:1017700094F8207083424FEA4E3EE16BA2684FEA34
:10178000074C40F0AB80E068082A41EA000141EADA
:101790000E0104D00C3A102A9CBF6748865C41EACF
:1017A0000C0141EA0600012F02BF626A02F1FF321A
:1017B00040EA4240A26A22B102F47872E16A0A4326
:1017C00010435C4AD968934240F08F805B4A0A40DC
:1017D0000243DA601A69616B22F040620A431A61BF
:1017E0001846FFF73BFB9A6802F00802024335D126
:1017F000504A217E93424FEA81310BBF94F8382042
:10180000226B41EA42011143DA6822F4804222F05D
:1018100003020A43DA6094F84420012A77D145494B
:10182000D3F810C08B42D4E91202D4E9147661D106
:10183000434930430CEA010101431143394341F06C
:10184000010119611A69216C22F070420A431A6180
:10185000384A934202D02046FFF7B6FE2369226839
:10186000012B58D1116BE36921F00F01013B0B43B0
:101870001363236E23F0030343F00103236628461A
:1018800003B0F0BD9A682F4922F0104222F03F02C7
:1018900042F080529A602C4A1268B2FBF1F2013297
:1018A0000192019A002A3FF42FAF019A013AF7E71B
:1018B000002536E71F48FFF7CDFA00287FF455AF23
:1018C00022498A68606822F47C1202438A604CE7ED
:1018D000BB4201D08B42F3D11D49F2E742EA01003D
:1018E00040EA0E0040EA0C005DE71A4A0A40024353
:1018F000DA6075E701383A43174942EA00420CEAD8
:10190000010132430A4342F001021A619AE71A695F
:1019100022F00102F9E7136B23F00F03A8E7236E0F
:1019200043F0100323660125A9E700BF0020024011
:101930000021024000600258785100080740F0FF83
:101940001FF800FC400D030004000024006302584F
:101950000023024003C0F0FF1EF800FC0749030209
:10196000CA6803F4E06322F4E0621204120C134329
:1019700043F0BF6343F40033CB60704700ED00E0F9
:10198000164B30B5DC68C4F30224C4F10703251DEF
:10199000042B28BF0423062D4FF0FF358CBF033CDA
:1019A000002405FA03F3002805FA04F521EA0303ED
:1019B00022EA050203FA04F343EA02034FEA03139F
:1019C000DBB206DB00F1604000F5614080F80033D7
:1019D00030BD00F00F00024A1354F9E700ED00E0BB
:1019E00014ED00E0002807DB0123410900F01F008F
:1019F000024A834042F82130704700BF00E100E016
:101A00000138B0F1807F0BD24FF0E023054AF0217E
:101A10005861002082F82310072298611A617047EC
:101A20000120704700ED00E010B5044668B103796D
:101A300003F0FF0213B94271FFF704F802230020FC
:101A4000237101232061237110BD0120FCE70000F8
:101A5000F8B50E4605461146069A002850D0407942
:101A600001284FF0020028D0012428716C712C68E5
:101A70003EBBA868234FC763234F0764234FC76447
:101A8000276847F48057276022B1042A16D004F152
:101A9000100201E004F10802276847F400572760AC
:101AA00000F06AFC00236B7128BB2A6806F0100660
:101AB00001231168B3400B431360F8BD04F10C021D
:101AC000EAE7E868124FC763124F0764124FC76412
:101AD000276847F08057276022B1042A08D004F114
:101AE0001C0201E004F11402276847F00057D6E712
:101AF00004F11802F8E72B6943F004032B61DCE7DB
:101B00000120DAE71F1B0008311B00083D1B0008FD
:101B10009F1C0008B11C0008BD1C0008704710B5D0
:101B2000846B2046FFF7FAFF0123237110BD704735
:101B3000806B08B5FFF7FBFF08BD704710B5846BDD
:101B40002369204643F004032361FFF7F6FF0123D6
:101B5000237110BD2DE9F0410D46164604460028BC
:101B600000F09880002900F09580427902200B68EF
:101B7000012A79D00122042B2071627123D1FFF751
:101B800027F90746002E7AD1DFF80C8123685A6BBB
:101B900012EA080F57D1AA691A64226806F01001E8
:101BA00040F2FF30936C884023EA0003E8698840E4
:101BB0000343FF2093648840D36C23EA0003286A20
:101BC00088400343D364296906F010022368012981
:101BD00008D11F21986B914020EA0100696991406A
:101BE000014399630721DE6B914026EA0106D5E99E
:101BF000021001284AD002284AD0B1FA81F04009E7
:101C00002F68394301434FF4804091409040314365
:101C1000D963196821EA0001196040F6FE7118685D
:101C2000914020EA0100696891400143C020196099
:101C300000FA02F21968002021EA02021A60012368
:101C40006071237110E0FFF7C3F8C01B01289DD914
:101C500023685B6B13EA080F98D02369032043F0D5
:101C60000803236103232371BDE8F081FFF7B0F877
:101C7000C01B012803D923685B6B002BEDDB2368B5
:101C80005A6B002AF2DBAA695A6486E70020B7E79C
:101C90000120B5E70120E7E700800020704710B57C
:101CA000846B2046FFF7FAFF0123237110BD7047B4
:101CB000806B08B5FFF7FBFF08BD704710B5846B5C
:101CC0002369204643F004032361FFF7F6FF012355
:101CD000237110BDF0B5DFF87CC10468876D6445E1
:101CE00045D0594DAC4242D01835AC423FD01835A2
:101CF000AC423CD01835AC4239D01835AC4236D065
:101D00001835AC4233D01835AC4230D005F5567595
:101D1000AC422CD01835AC4229D01835AC4226D074
:101D20001835AC4223D01835AC4220D01835AC421F
:101D30001DD01835AC421AD01835AC4217D0434DDF
:101D4000AC4214D01435AC4211D01435AC420ED094
:101D50001435AC420BD01435AC4208D01435AC422B
:101D600005D01435AC4202D01435AC4267D1D0E96D
:101D700019566E60C56E15B1D0E91C566E6064458B
:101D800037D0314DAC4234D01835AC4231D0183553
:101D9000AC422ED01835AC422BD01835AC4228D0EE
:101DA0001835AC4225D01835AC4222D005F5567511
:101DB000AC421ED01835AC421BD01835AC4218D0FE
:101DC0001835AC4215D01835AC4212D01835AC429B
:101DD0000FD01835AC420CD01835AC4209D01B4D91
:101DE000AC4217D1C56D05F01F060125B5407D60D9
:101DF00009E0C56D05F01F063F25B540BD602568AB
:101E000025F48025256063608368402B18D1A2608B
:101E1000E16014E00E4DAC42E4D01435AC42E1D0A8
:101E20001435AC42DED01435AC42DBD01435AC42B4
:101E3000D8D01435AC42D5D01435AC42D2D0F0BD98
:101E4000A160E260FBE700BF28000240085402588E
:101E50001C540258100002400368024623498B427A
:101E600010B531D018318B422ED018318B422BD087
:101E700018318B4228D018318B4225D018318B4233
:101E800022D018318B421FD018318B421CD001F563
:101E900056718B4218D018318B4215D018318B42B5
:101EA00012D018318B420FD018318B420CD0183120
:101EB0008B4209D018318B4206D018318B4203D0A7
:101EC00023F0FF00906510BDDCB218210848103CDB
:101ED000B4FBF1F101F007015F2C415C23F47F704A
:101EE00020F00300D16588BF0430EBE7100002400A
:101EF0008951000802682149D3B28A4228D014319E
:101F00008A4225D014318A4222D014318A421FD00D
:101F100014318A421CD014318A4219D014318A42B9
:101F200016D014318A4213D01821103BB3FBF1F3C1
:101F300013491144A8291ED903F18052012103F04D
:101F40001F0302F5024201FA03F30E4992000EE06C
:101F50001422083B0121B3FBF2F303F1B05203F06A
:101F60001F0302F5164201FA03F307499200836644
:101F7000C0E9182170470833DEE700BF0854025853
:101F8000F0FBFDBF80080240805802580279511EC4
:101F9000072910B521D80368134CA3421ED014346E
:101FA000A3421BD01434A34218D01434A34215D03A
:101FB0001434A34212D01434A3420FD01434A342D9
:101FC0000CD01434A34209D0084B1344084A9B0098
:101FD000C0E91B3201238B40436710BD054B1344FE
:101FE000054A9B00F4E700BF085402583F820010E6
:101FF000400902403F96001640590258F8B5044681
:10200000FEF7E6FE0646002C00F0E7802368834DCD
:10201000AB426AD0824A934267D01832934264D06E
:102020001832934261D0183293425ED018329342F4
:102030005BD01832934258D01832934255D002F5F3
:102040005672934251D0183293424ED01832934276
:102050004BD01832934248D01832934245D01832B0
:10206000934242D0183293423FD0183293423CD030
:102070006C4A934240F055810222A16884F83520D1
:102080000022402984F83420186820F4FF3020F41E
:10209000F87000F06481A1F180025142514189033E
:1020A000D4E90362D20842EAD602666942EAD6025D
:1020B000A66942EAD602E66942EAD602266A42EAFE
:1020C0001612024320461143574A19601A4414233A
:1020D000B2FBF3F29200E265FFF7BEFEE36D03F0A0
:1020E0001F02012393404360B2E00222AB4284F816
:1020F00035204FF0000284F834201ED0484A934225
:102100001BD01832934218D01832934215D018328F
:10211000934212D0183293420FD0183293420CD00F
:102120001832934209D002F55672934205D0183204
:10213000934202D018329342FFD01A6822F0010273
:102140001A6021680B68DB073DD40B68374AA06929
:102150001A40D4E902363343266933436669334370
:10216000E66903433343266A3343666A042E43EA2F
:10217000020302BFD4E90B273A4313436268A2F17A
:102180002907052F2ED9522A29D83E2A05D9284FAA
:102190003F3A27FA02F2D70724D40B60042E4B698A
:1021A00023F0070343EA060348D1A26AE66A134311
:1021B000002E43D0C8B9012A28D032F002023DD106
:1021C000F0013BD525E0FEF703FE801B0528B8D9BA
:1021D00020236365032384F835300120F8BD743A69
:1021E000032ADAD843F48013D7E7B0F5005F21D192
:1021F000032A23D801A050F822F000BF13220008C0
:10220000C1210008132200080D220008B6F1C07F8A
:1022100014D1402363650123DDE700BF10000240B5
:102220002800024008540258F8ABFDA73F8010FE7A
:102230000F030F00022AECD9032AC1D04B612046BC
:10224000FFF70AFEE36D03F01F023F239340836014
:102250002368AB4245D0454A934242D0183293425C
:102260003FD0183293423CD01832934239D01832C2
:10227000934236D01832934233D01832934230D042
:1022800002F5567293422CD01832934229D018325C
:10229000934226D01832934223D01832934220D052
:1022A000183293421DD0183293421AD018329342FA
:1022B00017D02F4A934214D01432934211D01432C3
:1022C00093420ED0143293420BD01432934208D072
:1022D0001432934205D01432934202D01432934206
:1022E00019D120460025FFF705FEA368226E802B3A
:1022F00004BF002363606368D9B2013B1160072B00
:10230000D4E9192151602CD8FFF740FEE36E1D601F
:10231000D4E91C325A6000200123606584F835300E
:102320005CE7144A93423FF4A7AE143293423FF461
:10233000A3AE143293423FF49FAE143293423FF463
:102340009BAE143293423FF497AE143293423FF463
:1023500093AE143293423FF48FAE402339E71021FD
:102360009EE6C4E91B556567D5E700BF280002401B
:10237000085402581C54025870B5002800F00A8115
:1023800090F83440012C00F00781012480F834409B
:1023900090F83540012C4FF0000440F0F680022503
:1023A00080F835507D4D44650468AC421ED07C4EAB
:1023B000B4421BD01836B44218D01836B44215D0E7
:1023C0001836B44212D01836B4420FD01836B44280
:1023D0000CD01836B44209D006F55676B44205D072
:1023E0001836B44202D01836B442FFD0266826F020
:1023F00001062660FFF76EFCAC42026C53D0684BBE
:102400009C4250D018339C424DD018339C424AD045
:1024100018339C4247D018339C4244D018339C4216
:1024200041D018339C423ED003F556739C423AD0BB
:1024300018339C4237D018339C4234D018339C4216
:1024400031D018339C422ED018339C422BD01833F5
:102450009C4228D018339C4225D0236823F00E03D9
:1024600043F00A032360002A56D14E4B9C4227D0EA
:102470004D4B9C4224D014339C4221D014339C42B7
:102480001ED014339C421BD014339C4218D01433FA
:102490009C4215D014339C4212D02368002043F094
:1024A0000103236070BD236823F01E0343F016036D
:1024B00023601AB1236843F008032360AC4230D193
:1024C000036E1A68D2035BD4C36E1BB11A6842F460
:1024D00080721A60AC42E0D0314B9C42DDD01833A0
:1024E0009C42DAD018339C42D7D018339C42D4D0C7
:1024F00018339C42D1D018339C42CED018339C4222
:10250000CBD003F556739C42C7D018339C42C4D03D
:1025100018339C42C1D0C0E7236843F00403236012
:10252000A3E71F4B9C42CBD018339C42C8D0183332
:102530009C42C5D018339C42C2D018339C42BFD0B5
:1025400018339C42BCD018339C42B9D003F5567363
:102550009C42B5D018339C42B2D018339C42AFD0C5
:1025600018339C42ACD018339C42A9D018339C42FB
:10257000A6D018339C42A3D018339C42A0D074E755
:102580001A6842F480721A609EE74FF4006380F884
:1025900034404365012085E7022083E710000240B4
:1025A00028000240085402581C54025800232DE908
:1025B000F34101930446294B294E1F680368856D3A
:1025C000B342D5F80080D5F800C04FD0254A9342D9
:1025D0004CD01832934249D01832934246D0183228
:1025E000934243D01832934240D0183293423DD0A8
:1025F000183293423AD002F55672934236D01832CE
:10260000934233D01832934230D0183293422DD0B7
:10261000183293422AD01832934227D0183293426C
:1026200024D01832934221D00F4A934240F00982BD
:10263000E16D04201A6801F01F01884010EA0C0FB8
:1026400000F02682560740F123821104686040F1B1
:102650001782D30300F11A82A36C7EE104000024E8
:10266000100002402800024008540258E26D082081
:1026700002F01F02904010EA080F3DD0B3422ED066
:1026800084498B422BD018318B4228D018318B4291
:1026900025D018318B4222D018318B421FD01831EF
:1026A0008B421CD018318B4219D001F556718B42E8
:1026B00015D018318B4212D018318B420FD01831FF
:1026C0008B420CD018318B4209D018318B4206D086
:1026D00018318B4203D018318B4240F0C180196809
:1026E000C1F3800141B1196821F004011960A860AB
:1026F000616D41F00101616528FA02F1C80734D526
:10270000B3422ED063498B422BD018318B4228D054
:1027100018318B4225D018318B4222D018318B4290
:102720001FD018318B421CD018318B4219D001F5C3
:1027300056718B4215D018318B4212D018318B4212
:102740000FD018318B420CD018318B4209D0183180
:102750008B4206D018318B4203D018318B4240F0A7
:1027600083805969090600F181800421914011EAB2
:10277000080F32D0B3422DD0464883422AD01830B9
:10278000834227D01830834224D01830834221D08E
:10279000183083421ED0183083421BD01830834239
:1027A00018D000F55670834214D01830834211D0EF
:1027B000183083420ED0183083420BD01830834239
:1027C00008D01830834205D01830834202D0183028
:1027D000834253D11868800752D41021914011EAE6
:1027E000080F5DD0B3422DD02A4A93422AD0183226
:1027F000934227D01832934224D01832934221D0EA
:10280000183293421ED0183293421BD01832934292
:1028100018D002F55672934214D01832934211D058
:10282000183293420ED0183293420BD01832934292
:1028300008D01832934205D01832934202D0183291
:10284000934223D11A68C2F3C0024AB3A9601A683E
:10285000500340F18A801B6819031DD4236C1CE0CF
:102860001968C1F3C0013DE719687EE70121914075
:10287000A960616D41F00201616576E71968ACE716
:10288000A960616D41F004016165A6E71A68C2F3B1
:102890008002DAE728000240A36C0BB1204698477B
:1028A000E16D202001F01F01884010EA080F72D06E
:1028B0002368B3422DD08D4A93422AD018329342D6
:1028C00027D01832934224D01832934221D01832A4
:1028D00093421ED0183293421BD01832934218D024
:1028E00002F55672934214D01832934211D0183226
:1028F00093420ED0183293420BD01832934208D034
:102900001832934205D01832934202D018329342C3
:1029100034D11A68C2F30012002A3CD0A86094F89F
:102920003520042A1A682DD122F016021A605A693D
:1029300022F080025A61226C0AB9A26C1AB11A689C
:1029400022F008021A603F238B40AB60012384F819
:102950003530002384F83430236D002B00F08D8057
:10296000204602B0BDE8F04118471A68D2053FF58D
:1029700075AF1A6822F008021A606FE71A68C2F38E
:102980004002C9E755034DD51B68180357D4636C43
:102990000BB120469847636D002B6ED0636DD9074D
:1029A0003ED5042384F835302368B3421ED04F4A05
:1029B00093421BD01832934218D01832934215D04C
:1029C0001832934212D0183293420FD018329342E9
:1029D0000CD01832934209D002F55672934205D0BA
:1029E0001832934202D018329342FFD04FF416515E
:1029F0001A68B7FBF1F122F001021A60019A013264
:102A00008A42019202D81A68D207F7D41B68DF07FE
:102A10004CBF0323012384F83530002384F834307D
:102A2000E36C9AE71A6812F4807208D1196821F0F1
:102A300010011960012384F8342084F83530E36BE9
:102A4000A6E72B4A93423FF4F3AD143293423FF48E
:102A5000EFAD143293423FF4EBAD143293423FF4A6
:102A6000E7AD143293423FF4E3AD143293423FF4A6
:102A7000DFAD143293423FF4DBAD02B0BDE8F0812C
:102A8000970603D41A6822F004021A60236C64E7E4
:102A90000220884010EA0C0F16D0960714D5686003
:102AA000100403D5D1030DD4636C56E712F0200255
:102AB00008D1196821F00A011960012384F8342033
:102AC00084F83530E36B48E70820884010EA0C0FA3
:102AD000D3D01207D1D51A6822F00E021A60012352
:102AE00003FA01F16960636595E700BF28000240C1
:102AF0001C5402582DE9F74F0023DFF8B8914FF02E
:102B0000B0440A6832FA03F502D103B0BDE8F08F91
:102B1000012505FA03F818EA020200F0B7804E68B2
:102B200003274FEA430E06F0030507FA0EFC6F1E5B
:102B30006FEA0C0C012F34D8876807EA0C0ACF68BB
:102B400007FA0EF747EA0A078760476827EA080886
:102B5000C6F300179F4047EA08074760C768022D81
:102B600007EA0C088F6807FA0EF747EA0807C760FC
:102B700019D14FEAD30803F0070A4FF00F0B00EB0F
:102B800088084FEA8A0AD8F820700BFA0AFB27EA6D
:102B90000B0B0F6907FA0AF747EA0B07C8F8207012
:102BA00001E0032DDAD1076805FA0EF516F4403F6F
:102BB00007EA0C0745EA0705056067D0D9F8F45025
:102BC00023F0030703F0030C4FF00F0E45F002054E
:102BD00007F1B0474FEA8C0CC9F8F45007F580674D
:102BE000D9F8F4500EFA0CFE05F002050195019D8E
:102BF000BD6825EA0E0E2E4DA84249D005F5806528
:102C0000A84247D005F58065A84245D005F5806506
:102C1000A84243D005F58065A84241D005F58065FE
:102C2000A8423FD005F58065A8423DD005F58065F6
:102C3000A8423BD005F50065A84214BF0A25092526
:102C400005FA0CF516F4801F45EA0E05BD606FEA23
:102C5000020725680CBF3D40154316F4001F256090
:102C600065680CBF3D40154316F4003F6560D4F81D
:102C700084500CBF3D401543F603C4F88450D4F88B
:102C8000805054BF3D401543C4F88050013338E7AD
:102C90000025D5E70125D3E70225D1E70325CFE7B6
:102CA0000425CDE70525CBE70625C9E70725C7E7B6
:102CB00000000258004402580AB1816170470904BB
:102CC000FBE7000038B5104CE36813F0040FE3682D
:102CD00005D103F00703181A18BF012038BD23F0EF
:102CE00007031843E060FEF773F8054663689B042A
:102CF00001D50020F2E7FEF76BF8401BB0F57A7FB4
:102D0000F4D90120EAE700BF00480258F8B50446AC
:102D1000002869D00368D80753D42368990700F1C5
:102D2000A1802368DA061CD5954A1369916A03F0DD
:102D30003803082B07D0182B40F0E18001F0030383
:102D4000012B40F0DC801368DB0502D5E369802BA2
:102D50004AD18B4A216AD36823F07C5343EA01634A
:102D6000D3602368190700F1F68023689A0600F102
:102D70001C8123685D071ED5824D2B6843F4807348
:102D80002B60FEF725F806462B68DA0540F1328104
:102D9000A3687B4D012B40F034812B6F43F001037E
:102DA0002B6741F28837FEF713F8754E0546336FEF
:102DB0009B0740F14C81616A002940F04F8100205F
:102DC0002AE06F4A1369916A03F03803102B05D08B
:102DD000182B0BD101F00303022B07D113689A03C0
:102DE0009BD56368002B98D1012015E06368644D82
:102DF000B3F5803F11D12B6843F480332B60FDF78E
:102E0000E7FF5F4E054633689B0386D4FDF7E0FF7E
:102E1000401B6428F7D90320F8BDA3B92B6823F41D
:102E200080332B602B6823F480232B60FDF7D0FFC9
:102E300006462B689F037FF570AFFDF7C9FF801B27
:102E40006428F6D9E7E7B3F5A02F2B6803D143F444
:102E500080232B60CFE723F480332B602B6823F48F
:102E60008023CBE74649E2680B69886A13F0380390
:102E700003D0182B20D180071ED10B685B0701D52A
:102E8000002AB1D03E4D2B6823F0190313432B6069
:102E9000FDF79EFF06462B685F0707D56B68226922
:102EA00023F0FE4343EA02636B603AE7FDF790FFCD
:102EB000801B0228EFD9AEE7314D2B687AB123F0A1
:102EC000190313432B60FDF783FF06462B68580751
:102ED000E4D4FDF77DFF801B0228F7D99BE723F0A0
:102EE00001032B60FDF774FF06462B6859077FF539
:102EF00018AFFDF76DFF801B0228F6D98BE7E36959
:102F00001F4DBBB12B6843F080032B60FDF760FFC2
:102F100006462B68DF0507D5EB68226A23F07C5351
:102F200043EA0263EB601CE7FDF752FF801B0228B7
:102F3000EFD970E72B6823F080032B60FDF748FF83
:102F400006462B68D8057FF50CAFFDF741FF801BC7
:102F50000228F6D95FE76369094DABB16B6F43F0A7
:102F600001036B67FDF734FF06466B6F9B073FF568
:102F7000FCAEFDF72DFF801B0228F6D94BE700BF02
:102F800000440258004802586B6F23F001036B673E
:102F9000FDF71EFF06466B6F9F077FF5E6AEFDF758
:102FA00017FF801B0228F6D935E7A369934D83B13B
:102FB0002B6843F480532B60FDF70AFF06462B680D
:102FC00098043FF5D6AEFDF703FF801B0228F6D923
:102FD00021E72B6823F480532B60FDF7F9FE0646AA
:102FE0002B6899047FF5C5AEFDF7F2FE801B022821
:102FF000F6D910E7FDF7ECFE801B64287FF6C4AE1F
:1030000009E7B3B92B6F41F2883723F001032B672F
:103010002B6F23F004032B67FDF7DAFE06462B6FB8
:1030200098077FF5C8AEFDF7D3FE801BB842F6D9EE
:10303000F1E6052B2B6F03D143F004032B67ACE6BD
:1030400023F001032B672B6F23F00403A8E6FDF7A1
:10305000BFFE401BB8427FF6AAAEDCE6674D2B6987
:1030600003F03803182B7AD02B68022923F08073E1
:103070002B6067D1FDF7ACFE06462B6899015BD447
:10308000AB6AA26A23F47C7323F003031343E26A5E
:1030900043EA0213AB62636BA26B013B013A5B0232
:1030A00012049BB202F4FE021343226B013AC2F3F4
:1030B00008021343E26B013A120602F0FE42134388
:1030C0002B63EB6A23F00103EB626B6BA26C23F4BE
:1030D0007F4323F0F80343EAC2036B63EB6A226C7D
:1030E00023F00C031343EB62EB6A626C23F00203E0
:1030F0001343EB62EB6A43F48033EB62EB6A43F415
:103100000033EB62EB6A43F48023EB62EB6A43F03B
:103110000103EB622B6843F080732B60FDF758FED0
:10312000364D04462B689A013FF549AEFDF750FE37
:10313000001B0228F6D96EE6FDF74AFE801B022826
:103140009BD968E6FDF744FE04462B689B017FF59A
:1031500036AEFDF73DFE001B0228F6D95BE60129DD
:10316000AA6A2B6B3FF440AE02F00301A06A8142D1
:103170007FF43AAEC2F30512E16A8A427FF434AEBC
:10318000226BC3F30801013A91427FF42DAE626BCA
:10319000C3F34621013A91427FF426AEA26BC3F3FA
:1031A0000641013A91427FF41FAEE26BC3F306631E
:1031B000013A93427FF418AE6B6BA26CC3F3CC035D
:1031C0009A423FF4FCAD0D4DEB6A23F00103EB6234
:1031D000FDF7FEFD0646FDF7FBFDB042FBD06B6B35
:1031E000A26C23F47F4323F0F80343EAC2036B632A
:1031F000EB6A43F00103EB62E1E500BF00440258D3
:10320000494B1A6902F03802102A30B500F0888064
:10321000182A0CD0002A40F085801A68434812F022
:10322000200F03D01B68C3F3C103D84030BD996A97
:103230009D6ADC6A15F47C7FC5F305105A6BF5D0E6
:10324000C2F3CC0204F0010401F0030107EE900A7E
:103250006243B7EE006A0129B8EEE77A06EE902ADB
:10326000FAEEE96A4ED002293ED000294AD11A6806
:10327000920627D519682D4AC1F3C1011B6BCA40BC
:10328000C3F3080307EE902AF8EEE75AC5EE877AF3
:1032900007EE103AB8EEC77A37EE267A37EE067A9E
:1032A00067EE877A204B1B6BC3F34623013307EE8F
:1032B000103AF8EEC76A87EEA67AFCEEC77A17EEE8
:1032C000900AB3E71B6BC3F3080307EE903AF8EEDE
:1032D000E77A77EEA67A77EE867A9FED156AC6EEE4
:1032E000076A67EEA67ADDE71B6BC3F3080307EEF8
:1032F000903AF8EEE77A77EEA67A77EE867A9FED47
:103300000D6AECE71B6BC3F3080307EE903AF8EE87
:10331000E77A77EEA67A77EE867A9FED076ADEE7A0
:10332000064883E7064881E7004402580090D0032E
:103330000024744C20BCBE4B0024744A40787D01AC
:1033400000093D002DE9F0410D46044610B9012069
:10335000BDE8F081884A136803F00F038B42C0F088
:10336000938023685F0700F19B801E070BD583497C
:103370006069CA6902F07002904204D9CA6922F0F9
:1033800070020243CA61D8060BD57C49A069CA699C
:1033900002F4E062904204D9CA6922F4E062024376
:1033A000CA6199060BD57549E0690A6A02F0700294
:1033B000904204D90A6A22F0700202430A629A0714
:1033C0000BD56E49E0688A6902F00F02904204D979
:1033D0008A6922F00F0202438A61DF076ED42368F4
:1033E0009E0700F1A18064490A6802F00F02AA4218
:1033F00000F2A880580700F1B18019070BD55F498A
:103400006069CA6902F07002904204D2CA6922F06F
:1034100070020243CA61DA060BD55849A069CA692D
:1034200002F4E062904204D2CA6922F4E0620243EC
:10343000CA619B060BD5514AE169136A03F0700318
:10344000994204D2136A23F070030B431362FFF70F
:10345000D7FE4A494A4A8B69C3F30323D35C03F07E
:103460001F03D8408B6903F00F03D35C454A03F078
:103470001F0320FA03F31360434B1860434BBDE86E
:10348000F0411868FDF744BC136823F00F030B43A9
:103490001360136803F00F038B427FF458AF60E7AB
:1034A000364920698A6902F0700290427FF65DAF6A
:1034B0008A6922F0700202438A6156E72F4BA168A5
:1034C0009A6922F470620A439A6161681A68022953
:1034D0001DD112F4003F3FF43AAF1A6941F2883827
:1034E000264F22F007020A431A61FDF771FC0646D7
:1034F0003B69626803F03803B3EBC20F3FF46FAF70
:10350000FDF766FC801B4045F2D9032020E7032924
:1035100002D112F0007FDEE7012902D112F4807F90
:10352000D9E712F0040FD6E71449E0688A6902F07F
:103530000F029042BFF457AF8A6922F00F02024394
:103540008A6150E70A6822F00F022A430A600A687B
:1035500002F00F02AA427FF4FAAE4BE70749206956
:103560008A6902F070029042BFF447AF8A6922F084
:10357000700202438A6140E7002000520044025872
:103580006851000800000024040000240C000024FE
:1035900008B5FFF735FE0B4A0B4993699269C3F3EF
:1035A000032302F00F02CB5C03F01F0320FA03F3A6
:1035B000885C064A00F01F0023FA00F01060044AFD
:1035C000136008BD00440258685100080000002440
:1035D0000400002408B5FFF7DBFF054B054ADB6953
:1035E000C3F30213D35C03F01F03D84008BD00BF30
:1035F0000044025868510008F8B53A4C06460D469A
:10360000A36A03F00303032B69D0236823F08063CC
:103610002360FDF7DDFB074623681A014BD4A36A3C
:10362000326823F47C3343EA0233A362B368F2685E
:10363000013B013A5B0212049BB202F4FE02134307
:103640007268013AC2F3080213433269013A120662
:1036500002F0FE421343A363E36A726923F0C003DE
:103660001343E362E36AB26923F020031343E36286
:10367000E36A23F01003E362E36BF26923F47F4310
:1036800023F0F80343EAC203E363E36A43F0100361
:10369000E362E36AB5B943F40023E362114C2368A3
:1036A00043F080632360FDF793FB054623681B010D
:1036B0000FD5002005E0FDF78BFBC01B0228ABD91E
:1036C0000320F8BD012D0CBF43F4801343F4001315
:1036D000E3E7FDF77DFB401B0228E7D9F0E7012077
:1036E000EFE700BF00440258F8B53A4C06460D46D5
:1036F000A36A03F00303032B69D0236823F08053EC
:103700002360FDF765FB074623689A004BD4A36A44
:10371000326823F07C7343EA0253A362B368F26811
:10372000013B013A5B0212049BB202F4FE02134316
:103730007268013AC2F3080213433269013A120671
:1037400002F0FE4213432364E36A726923F4406388
:103750001343E362E36AB26923F400731343E36241
:10376000E36A23F48073E362636CF26923F47F43BA
:1037700023F0F80343EAC2036364E36A43F480730B
:10378000E362E36AB5B943F48003E362114C236852
:1037900043F080532360FDF71BFB054623689B0025
:1037A0000FD5002005E0FDF713FBC01B0228ABD9A5
:1037B0000320F8BD012D0CBF43F4000343F08073D8
:1037C000E3E7FDF705FB401B0228E7D9F0E70120FE
:1037D000EFE700BF004402582DE9F84303680546AF
:1037E0001C011ED5436EB3F5001F2AD00FD8D3B1EC
:1037F000B3F5801F1DD001262B68D80553D5AB6DBE
:10380000042B4FD8DFE803F0224148272700B3F507
:10381000401FF0D1984A696E136D23F440130B4397
:1038200013650026E8E7944AD36A43F40033D36271
:10383000F0E702210830FFF7DFFE06460028DBD163
:10384000E8E702212830FFF74FFFF6E78A4AD36AFC
:1038500043F40033D36234463CBB874AA96D136DF1
:1038600023F007030B4313652B68590530D5D5F8B2
:10387000A430B3F5800F49D019D8002B39D0B3F557
:10388000001F3CD00126344622E0002105F108004B
:10389000FFF7B2FE0446DFE7002105F12800FFF73D
:1038A00023FFF7E701263446DEE72646DCE723F46C
:1038B0000012B2F5000F02D0B3F5C00FE2D15CBB2D
:1038C0006D4AD5F8A410936D23F460030B43936500
:1038D0002B681A0533D5D5F8A830B3F1007F48D04E
:1038E0001CD8002B38D0B3F1807F3BD00126344662
:1038F00025E0614AD36A43F40033D362DFE7002155
:1039000005F10800FFF778FE0446D8E7002105F12D
:103910002800FFF7E9FEF7E72646D9E723F0807293
:10392000B2F1806F02D0B3F1407FDFD13CBB524A8D
:10393000D5F8A810936D23F0E0630B4393652B68D3
:103940009B0128D5EB6C202B3BD01AD8DBB1102B78
:1039500031D0012634461EE0474AD36A43F400338F
:10396000D362E3E7002105F10800FFF745FE0446B6
:10397000DCE7002105F12800FFF7B6FEF7E7264651
:10398000DDE7302BE5D11CBB3B4AE96CD36C23F05F
:1039900030030B43D3642B68DF042AD5EB6DB3F5FA
:1039A000005F78D016D8002B68D0B3F5805F6BD05D
:1039B000012634461DE0304AD36A43F40033D36213
:1039C000E1E7022105F10800FFF716FE0446DAE7F9
:1039D0002646E0E7B3F5405F02D0B3F5804FE7D16C
:1039E000002C5ED1244AE96D136D23F4E0430B43B0
:1039F00013652B6898040BD52B6EB3F5003F6AD086
:103A000051D8002B57D0B3F5803F5DD00126344606
:103A10002B6859040CD5D5F8AC30B3F1005F7BD0DE
:103A200061D8002B67D0B3F1805F6ED00126344699
:103A30002B681A0411D5EB6EB3F1805F74D0B3F12B
:103A4000005F77D0002B7CD1002C7DD10A4AE96E33
:103A5000136D23F040530B4313652B68DB0140F1DA
:103A60008380AB6C032B00F2DB80DFE813F0740083
:103A70006F00D200740000BF004402589E4AD36A0F
:103A800043F40033D362ABE7002105F10800FFF7F0
:103A9000B3FD0446A4E7002105F12800FFF724FE4A
:103AA000F7E72646A5E723F48032B2F5802F02D04F
:103AB000B3F5403FAAD1A4B98F4A296E136D23F400
:103AC000E0230B431365A3E7012105F10800FFF78D
:103AD00093FD0446EFE7012105F12800FFF704FEFE
:103AE000F7E7264694E723F08052B2F1804F02D0E8
:103AF000B3F1405F9AD1ACB97F4AD5F8AC10936D61
:103B000023F0E0430B43936592E7012105F10800A0
:103B1000FFF772FD0446EEE7012105F12800FFF7EB
:103B2000E3FDF7E7264683E7734AD36A43F400339D
:103B3000D36289E7012105F10800FFF75DFD044626
:103B400082E70126344688E7264686E76A4AD36A32
:103B500043F40033D362002C65D1674AA96CD36C5F
:103B600023F003030B43D3642B685F0239D5634F03
:103B70003B6843F480733B60FDF72AF980463B685D
:103B8000D80552D5002C6ED15B4BD5F8B0001A6F1A
:103B9000424012F4407F0BD01A6F196F22F440722A
:103BA00041F480311967196F21F4803119671A6760
:103BB000B0F5807F42D0D5F8B0304F4903F4407261
:103BC000B2F5407F4BD108694D4A20F47C5002EA9F
:103BD000131202430A61C3F30B03474A116F0B43ED
:103BE00013672B68DA0709D5AB6F102B53D03CD87D
:103BF000002B40D0082B47D0012634462B689B076A
:103C00005FD56B6F052B72D8DFE803F0534D6B5314
:103C10005353022105F10800FFF7EEFC04469AE732
:103C200001263446A0E726469EE7FDF7D1F8A0EB33
:103C300008006428A3D903263446D2E7FDF7C8F864
:103C4000DFF8B480074641F28839D8F87030990718
:103C5000B1D4FDF7BDF8C01B4845F6D9EBE70A69BA
:103C600022F47C52B6E72646BBE723F00802202A5E
:103C700001D0182BC0D1A4B91F4AA96F536D23F0EE
:103C800038030B435365B9E7012105F10800FFF73D
:103C9000B3FC0446EFE7012105F12800FFF724FDFE
:103CA000F7E72646AAE7012105F10800FFF7A4FC83
:103CB0000446FCB9104A696F536D23F007030B43A8
:103CC00053652B685F072ED5D5F89030052B00F291
:103CD0006681DFE813F01D0017005E011D001D0066
:103CE0001D00012105F12800FFF7FEFCE0E7012699
:103CF0003446E6E72646E4E7004402580048025806
:103D0000CFFFFF00012105F10800FFF775FC044615
:103D1000002C40F04781A44AD5F89010936D23F011
:103D200007030B4393652B68980610D5D5F88C30A4
:103D3000B3F1005F00F0548100F23881002B00F0F5
:103D40003E81B3F1805F00F04481012634462B6848
:103D5000590610D5D5F89830B3F5006F00F06281A0
:103D600000F24681002B00F04C81B3F5806F00F02B
:103D70005281012634462B681A0610D5D5F89C309E
:103D8000B3F5804F00F0708100F25481002B00F0F9
:103D90005A81B3F5005F00F06081012634462B683C
:103DA0001B0714D5D5F88030B3F5805F07D1022109
:103DB00005F12800FFF798FC002818BF01267A4A71
:103DC000D5F88010536D23F440530B4353652B6893
:103DD000DF0614D5D5F89430B3F5807F07D10221E2
:103DE00005F12800FFF780FC002818BF01266E4A65
:103DF000D5F89410936D23F440730B4393652B68AF
:103E000018031BD5D5F8A010B1F5803F00F0348120
:103E1000B1F5003F07D0002940F0348105F10800DA
:103E2000FFF7EAFB0446002C40F02F815E4AD5F8EC
:103E3000A010936D23F440330B4393652B68590313
:103E40000FD5D5F88430B3F5001F00F02F81B3F5FE
:103E5000401F00F02181B3F5801F00F0188101267A
:103E600034462B68DA0309D52B6D002B00F027812F
:103E7000B3F5803F00F03181012634462B689B006A
:103E800007D5022105F12800FFF72EFC002818BFF6
:103E90000126D5E900319F0340F13781E86FB0F585
:103EA000807F00F0348100F22181002800F024811D
:103EB0000124DE0206D53C482E6F026D22F000423E
:103EC00032430265980206D53748AE6E026D22F085
:103ED0008072324302655A0009D5334A106920F4D2
:103EE000004010611069D5F8B46030431061002BB8
:103EF00006DA2D486E6DC26C22F040523243C26425
:103F00001F0207D5284AD5F88800536D23F44003D3
:103F100003435365CE0706D5002105F10800FFF7DE
:103F20006BFB074600B927466B689C0706D5012145
:103F300005F10800FFF760FB064600B93E466B68D6
:103F4000580706D5022105F10800FFF755FB044686
:103F500000B934466B68190706D5002105F1280021
:103F6000FFF7C2FB064600B926466B68DA0606D59F
:103F7000012105F12800FFF7B7FB044600B93446DC
:103F80006B689B0600F1C980201E18BF0120BDE8A8
:103F9000F883012105F12800FFF7A6FBB7E601260B
:103FA0003446C0E62646BEE60044025823F080525E
:103FB000B2F1804F03D0B3F1405F7FF4C6AEACB92D
:103FC0005B4AD5F88C10536D23F0E0430B435365E7
:103FD000BDE6002105F10800FFF70EFB0446EEE701
:103FE000022105F12800FFF77FFBF7E72646AEE642
:103FF00023F48062B2F5805F03D0B3F5406F7FF4A5
:10400000B8AEACB94A4AD5F89810936D23F4E05392
:104010000B439365AFE6002105F10800FFF7ECFACA
:104020000446EEE7022105F12800FFF75DFBF7E704
:104030002646A0E623F40052B2F5004F03D0B3F5B4
:10404000C04F7FF4AAAEACB9394AD5F89C10936D35
:1040500023F460430B439365A1E6002105F10800BA
:10406000FFF7CAFA0446EEE7022105F12800FFF740
:104070003BFBF7E7264692E6022105F12800FFF711
:1040800033FBCFE601263446D8E62646D6E6284A54
:10409000D36A43F40033D3627CB9254AD5F884103F
:1040A000536D23F440130B435365DAE6012105F108
:1040B0002800FFF719FB0446EEE72646D1E61C4A26
:1040C000D36A43F40033D36274B9194A296DD36CAF
:1040D00023F480330B43D364D0E6022105F10800BA
:1040E000FFF78AFA0446EFE72646C7E620F4807217
:1040F000B2F5007F7FF4DCAE002C7FF4DAAE0C4C1E
:10410000626D22F44072024362653446D1E6084F84
:10411000FA6A42F40032FA62EEE7022105F1280061
:10412000FFF7E2FA00283FF42FAF01202FE700BF8E
:104130000044025808B5FFF72BFA054B054A1B6AE5
:10414000C3F30213D35C03F01F03D84008BD00BFC4
:1041500000440258685100084F4970B58C6A8E6A55
:10416000CD6A16F47C3FC6F30533CA6B00F090802D
:1041700007EE903AC2F3CC03C5F3001204F0030437
:10418000B8EEE77A5343012CB7EE006A06EE903A98
:10419000FAEEE96A6ED0022C5ED0002C6AD10B6870
:1041A0009B0647D50A688B6BC2F3C1013B4AC3F338
:1041B0000803CA4007EE902AF8EEE75AC5EE877A60
:1041C00007EE103AB8EEC77A37EE267A37EE067A5F
:1041D00067EE877A304A936BC3F3462307EE103AB3
:1041E000B8EEC77A37EE067AC7EE876AFCEEE66A63
:1041F000C0ED006A936BC3F3064307EE103AB8EEC6
:10420000C77A37EE067AC7EE876AFCEEE66AC0ED3B
:10421000016A936BC3F3066306EE903AF8EEE66A22
:1042200076EE866A87EEA67AFCEEC77A17EE903AAB
:10423000836070BD8B6BDFED1A5AC3F3080307EE82
:10424000903AF8EEE77A77EEA67A77EE867AC5EEC0
:10425000876A67EEA67ABDE78B6BDFED125AC3F370
:10426000080307EE903AF8EEE77A77EEA67A77EE53
:10427000867AECE78B6BDFED0C5AC3F3080307EE8D
:10428000903AF8EEE77A77EEA67A77EE867ADEE76E
:10429000C0E90033CCE700BF004402580090D003CF
:1042A0000024744C20BCBE4B0024744A4F4970B5A6
:1042B0008C6A8E6ACD6A16F07C7FC6F305534A6C11
:1042C00000F0908007EE903AC2F3CC03C5F30022D1
:1042D00004F00304B8EEE77A5343012CB7EE006A0A
:1042E00006EE903AFAEEE96A6ED0022C5ED0002C0F
:1042F0006AD10B689B0647D50A680B6CC2F3C101F3
:104300003B4AC3F30803CA4007EE902AF8EEE75A87
:10431000C5EE877A07EE103AB8EEC77A37EE267AFE
:1043200037EE067A67EE877A304A136CC3F346237A
:1043300007EE103AB8EEC77A37EE067AC7EE876A0C
:10434000FCEEE66AC0ED006A136CC3F3064307EEA9
:10435000103AB8EEC77A37EE067AC7EE876AFCEEF7
:10436000E66AC0ED016A136CC3F3066306EE903A89
:10437000F8EEE66A76EE866A87EEA67AFCEEC77AF3
:1043800017EE903A836070BD0B6CDFED1A5AC3F3E1
:10439000080307EE903AF8EEE77A77EEA67A77EE22
:1043A000867AC5EE876A67EEA67ABDE70B6CDFED0D
:1043B000125AC3F3080307EE903AF8EEE77A77EE65
:1043C000A67A77EE867AECE70B6CDFED0C5AC3F336
:1043D000080307EE903AF8EEE77A77EEA67A77EEE2
:1043E000867ADEE7C0E90033CCE700BF004402581C
:1043F0000090D0030024744C20BCBE4B0024744AAF
:104400004F4970B58C6A8E6ACD6A16F47C7FC6F30C
:1044100005134A6B00F0908007EE903AC2F3CC038C
:1044200005F0010204F00304B8EEE77A5343012CCF
:10443000B7EE006A06EE903AFAEEE96A4ED0022C28
:104440005ED0002C6AD10B689B0667D50A680B6B9F
:10445000C2F3C1013B4AC3F30803CA4007EE902AE6
:10446000F8EEE75AC5EE877A07EE103AB8EEC77A4B
:1044700037EE267A37EE067A67EE877A304A136B84
:10448000C3F3462307EE103AB8EEC77A37EE067A42
:10449000C7EE876AFCEEE66AC0ED006A136BC3F3F1
:1044A000064307EE103AB8EEC77A37EE067AC7EE43
:1044B000876AFCEEE66AC0ED016A136BC3F306631C
:1044C00006EE903AF8EEE66A76EE866A87EEA67A0F
:1044D000FCEEC77A17EE903A836070BD0B6BDFED90
:1044E0001A5AC3F3080307EE903AF8EEE77A77EE2C
:1044F000A67A77EE867AC5EE876A67EEA67ABDE77A
:104500000B6BDFED125AC3F3080307EE903AF8EE97
:10451000E77A77EEA67A77EE867AECE70B6BDFED3B
:104520000C5AC3F3080307EE903AF8EEE77A77EEF9
:10453000A67A77EE867ADEE7C0E90033CCE700BFE3
:10454000004402580090D0030024744A20BCBE4BA3
:104550000024744C1FB5A0F580730B4314D19C4B01
:104560001A6D02F00702042A32D8DFE812F0F000D8
:104570001F0005004F014C00186810F000501DD0BE
:1045800001A8FFF793FE18E0A0F580630B4321D14B
:104590008F4B9A6D02F46002B2F5800FECD010D808
:1045A000002A00F0D480B2F5001F11D1186810F075
:1045B000006003D001A8FFF7CFFD019805B05DF8BA
:1045C00004FBB2F5C00F00F02181B2F5000F1AD044
:1045D0000020F3E7A0F500630B4333D17C4B9A6DC9
:1045E00002F0E062B2F1007FC6D005D8002A00F0E8
:1045F000AE80B2F1807FD8E7B2F1407F00F0068153
:10460000B2F1806FE3E7DA6C196802F040524807B4
:1046100006D52AB91B68C3F3C1036E48D840CDE75D
:104620006B4B1968C90503D5B2F1805F00F0F080CB
:10463000186810F40030C1D0B2F1005F664818BFAE
:104640000020BBE7A0F580530B4324D1604B1A6DCB
:1046500002F4E042B2F5005F8ED004D8002A76D092
:10466000B2F5805FA1E7B2F5405F00F0CF80B2F510
:10467000804FADD1DA6C196802F040521B684807D0
:1046800001D5002AC7D0D90503D5B2F1805F00F06B
:10469000BF804F4BCCE7A0F500530B4333D14C4ABE
:1046A000136D03F4E023B3F5403F00F083800CD892
:1046B000B3F5803F15D0B3F5003F1BD0002B87D159
:1046C00005B05DF804EBFEF785BFB3F5802F78D019
:1046D000B3F5A02F7FF47CAF10683F4B10F400308F
:1046E00073E0106810F000603FF468AF01A8FFF7B6
:1046F00033FD34E0106810F000503FF45FAF01A8C4
:10470000FFF7D4FD2BE0A0F500230B4317D1304B6E
:104710009A6D02F44032B2F5803F06D0B2F5003F08
:10472000A8D0002A7FF454AF40E7186810F000507A
:104730003FF444AF01A8FFF7B9FD03983EE7A0F5A9
:1047400080330B4316D1224BDA6CD20309D418689C
:1047500010F000703FF432AF01A8FFF751FE02984D
:104760002CE7186810F000603FF428AF01A8FFF7AD
:10477000F3FCE2E7A0F580430B4331D1144A936D7B
:1047800003F0E043B3F1405F14D00DD8B3F1805F84
:10479000A7D0B3F1005FADD0002B7FF419AF05B007
:1047A0005DF804EBFFF7C6BCB3F1804F09D0B3F15D
:1047B000A04F8FE7106810F004003FF4FFAE1368BD
:1047C00029E71068054B10F4807018BF1846F5E60D
:1047D000004402580090D00340787D0100093D005C
:1047E000A0F5004008437FF4F3AE0A4A136D03F0CE
:1047F0004053B3F1805F07D0B3F1005F3FF471AF76
:10480000002B7FF4E5AE67E71068A1E70248D5E624
:104810000248D3E6004402580080BB0000093D0076
:1048200090F83D30012B37D102231C4A80F83D30EF
:104830000368934222D0B3F1804F1FD0A2F57C428F
:1048400093421BD002F58062934217D002F580623A
:10485000934213D002F5784293420FD0A2F56C42F6
:1048600093420BD002F59432934207D0A2F5C04296
:10487000934203D002F58062934207D19968084AB7
:104880000A40062A06D0B2F5803F03D01A6842F0EB
:1048900001021A60002070470120704700000140AB
:1048A00007000100034630B590F83E0093F83F2022
:1048B00093F84450C0B293F84540D2B2EDB2E4B29E
:1048C000E1B9012859D1012D17D1022283F83E20E8
:1048D00083F844201A68116A21F001011162116AFB
:1048E00041F001011162D16841F00201D160002064
:1048F0001A68136843F00103136030BD042915D111
:10490000012A3AD1012C38D1022283F83F2083F8C2
:1049100045201A68116A21F010011162116A41F0F4
:1049200010011162D16841F00401DFE7012824D1B0
:10493000012AE2D1012DE0D1012CDED1022283F83F
:104940003E2083F83F2083F8442083F845201A68EE
:10495000116A21F001011162116A41F00101116235
:10496000116A21F010011162116A41F01001116207
:10497000D16841F00201D160D4E70120BDE7704762
:10498000704770477047036870B5DD6804461E695C
:10499000B2070DD5A9070BD56FF002021A610122EB
:1049A00002779B699A0775D0FBF70AFD00232377EE
:1049B000730710D568070ED523686FF004022046F0
:1049C0001A61022222779B6913F4407F68D0FBF7BB
:1049D000F7FC0023237731070FD52A070DD523686D
:1049E0006FF0080220461A6104222277DB699B07D8
:1049F0005CD0FBF7E5FC00232377F10610D5EA062F
:104A00000ED523686FF0100220461A610822227723
:104A1000DB6913F4407F4FD0FBF7D2FC00232377F0
:104A2000F30708D5E80706D523686FF00102204692
:104A30001A61FFF7A4FF16F4025F08D0290606D515
:104A400023686FF4025220461A6100F088F9F205DB
:104A500008D52B0606D523686FF4807220461A61AC
:104A600000F07EF9700608D5690606D523686FF058
:104A7000400220461A61FFF785FFB20622D5AB0639
:104A800020D523686FF0200220461A61BDE87040EF
:104A900000F064B9FFF774FF2046FFF772FF85E767
:104AA000FFF76EFF2046FFF76CFF92E7FFF768FF06
:104AB0002046FFF766FF9EE7FFF762FF2046FFF7FD
:104AC00060FFABE770BD0000374A0368904212D028
:104AD000B0F1804F0FD0A2F57C4290420BD002F58E
:104AE0008062904207D002F58062904203D002F5C6
:104AF0007842904219D14A6823F0700313432A4A3E
:104B0000904225D0B0F1804F22D0A2F57C42904255
:104B10001ED002F5806290421AD002F58062904267
:104B200016D002F57842904212D0204A90420FD01F
:104B300002F5806290420BD002F58062904207D06D
:104B4000A2F5D042904203D002F58062904203D198
:104B500023F44073CA6813434A6923F08003134364
:104B600003608B68C3620B6883620F4B98420FD05F
:104B700003F5806398420BD003F57053984207D039
:104B800003F58063984203D003F58063984201D116
:104B90000B690363012343610369DB0703D50369E1
:104BA00023F0010303617047000001400040014011
:104BB00010B5044650B390F83D3003F0FF021BB926
:104BC00080F83C20FBF7D6FF02232068211D84F8E3
:104BD0003D30FFF779FF0123002084F8483084F846
:104BE0003E3084F83F3084F8403084F8413084F817
:104BF000423084F8433084F8443084F8453084F8F7
:104C0000463084F8473084F83D3010BD0120FCE781
:104C1000F8B50D46044600284CD090F83D3003F01E
:104C2000FF021BB980F83C20FBF766FF21460223F8
:104C300084F83D3051F8040B836823F4A03323F04B
:104C400007038360FFF740FF81682A688369AE69C4
:104C5000114323F44073AA68076A23F0030342EA6E
:104C60000622EE6927F0AA071A432B691B0122F4DA
:104C70007C4243EA0623EE6822F0FC0233432E6AAC
:104C800043EA06336E6913436A68816042EA06129A
:104C90008361012317430762002084F8483084F8B9
:104CA0003E3084F83F3084F8443084F8453084F84E
:104CB0003D30F8BD0120FCE770B590F83C3004466B
:104CC0000220012B43D02368214D84F83D00AB42E4
:104CD0005A68986802D01F4EB34203D122F4700282
:104CE0004E6832430E6822F07002AB4242EA06027E
:104CF0005A6021D0B3F1804F1ED0174A93421BD087
:104D000002F58062934217D002F58062934213D07D
:104D100002F5784293420FD0A2F56C4293420BD039
:104D200002F59432934207D0A2F5C042934203D0D9
:104D300002F58062934204D1896820F080020A4320
:104D40009A600123002084F83D3084F83C0070BD57
:104D5000000001400004014000040040704770471B
:104D60007047C0F3C7537E2B10D9962B0CD8012265
:104D7000C3F1960302FA03F35A1E024206D103421C
:104D80000CBF0220012070470220704700207047AE
:104D900037B510EE101A10EE904AA1F5000263002C
:104DA000B2F1FE4FF0EE407AB0EE607A03F1FF30E0
:104DB0006FF0807252D2904258D2002001F14043ED
:104DC00003F54D03C3F3C344DB0D9D4ABFEE002B37
:104DD000DB05C91A02EB041407EE901A94ED025B8E
:104DE00094ED004BDB15B7EEE76A07EE903AA4EEC0
:104DF000062B92ED421B22EE024B24EE040BB8EE82
:104E0000E76B36EE056B92ED405B92ED443BA2EE14
:104E1000051B92ED465BA2EE035B92ED483BB7EEBD
:104E2000C77AA2EE036BA4EE056BA1EE006B27EE32
:104E3000067B17EE903AC3F3CF3248F2BF039A4293
:104E4000C0F0B8809FED766BB4EEC67BF1EE10FA41
:104E500079DD03B0BDE8304000F020B9904230D396
:104E60002BB14900B1F17F4F08D815E053B981F457
:104E70008001490011F5000F40F2CA8037EE870A21
:104E800003B030BDB1F17E5F05D184F480046400CD
:104E900014F5000FF0E74900B3F17F4FEED1B1F107
:104EA000FE4F00F0B580B1F1FE4F6FEA040434BF4D
:104EB00000210121E40FA14240F0AD8027EE070A56
:104EC000DEE74D006B1E93421BD3002920EE000A43
:104ED0000EDA2046FFF745FF012809D1B1EE400A5E
:104EE00045B9002CCCDA03B0BDE8304000F0DCB8A6
:104EF0000020F5E7002CC3DAF7EE007A87EE800A8F
:104F0000BEE700291DDA2046FFF72BFF20B903B0CA
:104F1000BDE8304000F0DAB8431E58425841000462
:104F200021F00041B1F5000FBFF448AFDFED456A55
:104F300027EEA60A10EE103A23F00043A3F13861E1
:104F40003CE70020EEE79FED386BB4EEC67BF1EE58
:104F500010FA0FDD4FF04C53C0B10193DDED016A43
:104F6000BFEE006A76EE666AF4EE466AF1EE10FA7B
:104F70007FF46FAF9FED2E6BB4EEC67BF1EE10FAAF
:104F80000CD803B0BDE8304000F07CB80093DDEDF4
:104F9000006AB7EE006A76EE866AE5E79FED266B5B
:104FA000B4EEC67BF1EE10FA04D503B0BDE8304094
:104FB00000F06EB8244BB7EE000B93ED405B37EE7C
:104FC000056B16EE102A36EE456B02F01F0137EE28
:104FD000467B93ED425B27EE074B93ED446B03EB6F
:104FE000C10553F83140A7EE056B6D6893ED465B44
:104FF000801800210A1905EBC033A7EE050B43EC1E
:10500000172BA6EE040B20EE070BB7EEC00B37E70D
:10501000B7EE000A34E79FED0D0A31E7AFF30080E9
:1050200071D5D1FFFFFF5F40E2AAA3FFFFFF5F4002
:105030000000000000C062C00000000000A062C0CC
:10504000E05200080000004B9851000800000000EA
:1050500010B52DED028BB0EE408A044600F04EF8FC
:10506000B0EE480ABDEC028B046010BD30B1F1EE29
:10507000407A27EE800A2220FFF7EABFF0EE407A5E
:10508000F7E700009FED010AFFF7F0BF00000010F6
:105090009FED010AFFF7EABF0000201A9FED010A09
:1050A000FFF7E4BF000000709FED070AF7EE007AFB
:1050B000BFEE007A00284FF0220047FE877A87EE85
:1050C000800AFFF7C5BF00BF00000000F0EE407A85
:1050D00030EE407AF4EE677AF1EE10FA87EE070AC6
:1050E00002D62120FFF7B4BF704702440346934223
:1050F00000D1704703F8011BF9E70000014B186865
:10510000704700BF1000002470B50D4D0D4C641B9E
:10511000A4100026A64209D10B4D0C4C00F018F843
:10512000641BA4100026A64205D170BD55F8043BAF
:1051300098470136EEE755F8043B98470136F2E709
:105140000854000808540008085400080C540008CB
:10515000F8B500BFF8BC08BC9E467047F8B500BF64
:08516000F8BC08BC9E46704734
:105168000000000001020304010203040607080905
:105178000800000000000000000000001800000007
:1051880010000610160006101600000000000000AF
:10519800000000000000F03F748515D3B0D9EF3F40
:1051A8000F89F96C58B5EF3F515B12D00193EF3F6F
:1051B8007B517D3CB872EF3FAAB968318754EF3F05
:1051C8003862756E7A38EF3FE1DE1FF59D1EEF3FBE
:1051D80015B7310AFE06EF3FCBA93A37A7F1EE3FE4
:1051E8002234124CA6DEEE3F2D89616008CEEE3FD8
:1051F800272A36D5DABFEE3F824F9D562BB4EE3FB5
:10520800295448DD07ABEE3F85553AB07EA4EE3F02
:10521800CD3B7F669EA0EE3F745FECE8759FEE3F46
:105228008701EB7314A1EE3F13CE4C9989A5EE3F8D
:10523800DBA02A42E5ACEE3FE5C5CDB037B7EE3F7F
:1052480090F0A38291C4EE3F5D253EB203D5EE3FB8
:10525800ADD35A999FE8EE3F475EFBF276FFEE3FEB
:105268009C5285DD9B19EF3F6990EFDC2037EF3FBB
:1052780087A4FBDC1858EF3F5F9B7B33977CEF3F9D
:10528800DA90A4A2AFA4EF3F40456E5B76D0EF3F23
:10529800000000000000E8429423914BF86AAC3FFC
:1052A800F3C4FA50CEBFCE3FD6520CFF422EE63F93
:1052B8000000000000003843FE822B654715474078
:1052C8009423914BF86ABC3EF3C4FA50CEBF2E3FEC
:1052D800D6520CFF422E963FBEF3F879EC61F63FAA
:1052E8001930965BC6FEDEBF3D88AF4AED71F53FCB
:1052F800A4FCD432680BDBBFB010F0F03995F43F52
:105308007BB71F0A8B41D7BF8503B8B095C9F33F58
:105318007BCF6D1AE99DD3BFA564880C190DF33FA7
:1053280031B6F2F39B1DD0BFA08E0B7B225EF23FFD
:10533800F07A3B1B1D7CC9BF3F341A4A4ABBF13F78
:105348009F3CAF93E3F9C2BFBAE58AF05823F13F17
:105358005C8D78BFCB60B9BFA70099413F95F03FFE
:10536800CE5F47B69D6FAABF000000000000F03F67
:105378000000000000000000AC479AFD8C60EE3F82
:105388003DF5249FCA38B33FA06A021FB3A4EC3F7F
:10539800BA913854A976C43FE6FC6A573620EB3FE9
:1053A800D2E4C44A0B84CE3F2DAAA163D1C2E93FFF
:1053B8001C65C6F04506D43FED417803E686E83F14
:1053C800F89F1B2C9C8ED83F624853F5DC67E73F5B
:1053D800CC7BB14EA4E0DC3F0B6E49C91676D23FB8
:1053E8007AC675A06919D7BFDDBAA76C0AC7DE3FB0
:1053F800C8F6BE484715E7BF2BB82A654715F73FDB
:04540800F5020008A1
:04540C00D1020008C1
:105410000090D0030090D0030100000010000000B5
:105420001400002400000000C4A600242CA70024BF
:1054300094A700240000000000000000000000000D
:10544000000000000000000000000000000000005C
:10545000000000000000000000000000000000004C
:10546000000000000000000000000000000000003C
:0400000508000CBD26
:00000001FF
